:100000000C94E2000C940A010C940A010C940A016D
:100010000C940A010C940A010C940A010C940A0134
:100020000C940A010C940A010C940A010C940A0124
:100030000C940A010C940A010C940A010C940A0114
:100040000C94EE090C940A010C9403070C94DD0641
:100050000C940A010C940A010C940A010C940A01F4
:100060000C940A010C940A01005EBCE2613FDD833E
:10007000C29C7E20A3FD1F419DC3217FFCA2401E88
:100080005F01E3BD3E6082DC237D9FC1421CFEA078
:10009000E1BF5D0380DE3C62BEE0025CDF81633D68
:1000A0007C22C09E1D43A1FF4618FAA427799BC558
:1000B00084DA3866E5BB5907DB856739BAE4065848
:1000C0001947A5FB7826C49A653BD987045AB8E638
:1000D000A7F91B45C6987A24F8A6441A99C7257B28
:1000E0003A6486D85B05E7B98CD2306EEDB3510F18
:1000F0004E10F2AC2F7193CD114FADF3702ECC9208
:10010000D38D6F31B2EC0E50AFF1134DCE90722CF7
:100110006D33D18F0C52B0EE326C8ED0530DEFB1E7
:10012000F0AE4C1291CF2D73CA947628ABF51749D7
:100130000856B4EA6937D58B5709EBB536688AD4C7
:1001400095CB2977F4AA4816E9B7550B88D6346AB7
:100150002B7597C94A14F6A8742AC896154BA9F7A7
:10016000B6E80A54D7896B35000000002400270048
:100170002A0000000000250028002B0000000008D5
:10018000000201000003040700000000000000005E
:1001900000000000230026002900040404040404D5
:1001A0000404020202020202030303030303010226
:1001B00004081020408001020408102001020408F5
:1001C00010205C0E11241FBECFEFD8E0DEBFCDBFE4
:1001D00011E0A0E0B1E0EAE9FBE202C005900D9277
:1001E000A436B107D9F722E0A4E6B1E001C01D9220
:1001F000A53FB207E1F710E0C2EED0E004C02197BE
:10020000FE010E940311C13ED107C9F70E94140FDD
:100210000C94CB150C9400000895CF92DF92EF92CE
:10022000FF920F931F93CF93DF936C017A018B01A1
:10023000C0E0D0E0CE15DF0589F0D8016D918D01C9
:10024000D601ED91FC910190F081E02DC601099558
:10025000892B11F47E0102C02196ECCFC701DF91FA
:10026000CF911F910F91FF90EF90DF90CF90089565
:10027000FC01918D828D981761F0828DDF01A80FAE
:10028000B11D5D968C91928D9F5F9F73928F90E0D0
:1002900008958FEF9FEF0895FC01918D828D98173F
:1002A00031F0828DE80FF11D858D90E008958FEF7C
:1002B0009FEF0895FC01918D228D892F90E0805C45
:1002C0009F4F821B91098F739927089581E891E0D0
:1002D0000E945A0121E0892B09F420E0822F089521
:1002E000FC01848DDF01A80FB11DA35ABF4F2C91D3
:1002F000848D90E001968F739927848FA689B789A2
:100300002C93A089B1898C9180648C93938D848D7A
:10031000981306C00288F389E02D80818F7D808349
:100320000895EF92FF920F931F93CF93DF93EC0109
:1003300081E0888F9B8D8C8D981305C0E889F989A1
:10034000808185FD24C0F62E0B8D10E00F5F1F4FBE
:100350000F731127E02E8C8DE8120CC00FB607FC2E
:10036000FACFE889F989808185FFF5CFCE010E9417
:100370007001F1CF8B8DFE01E80FF11DE35AFF4FA5
:10038000F0820B8FEA89FB898081806207C0EE8949
:10039000FF896083E889F98980818064808381E0B6
:1003A00090E0DF91CF911F910F91FF90EF90089512
:1003B000CF93DF93EC01888D8823C9F0EA89FB890C
:1003C000808185FD05C0A889B9898C9186FD0FC003
:1003D0000FB607FCF5CF808185FFF2CFA889B989D8
:1003E0008C9185FFEDCFCE010E947001E7CFDF91A8
:1003F000CF91089580E090E0892B29F00E9466015A
:1004000081110C94000008953FB7F89480917D010C
:1004100090917E01A0917F01B091800126B5A89BAB
:1004200005C02F3F19F00196A11DB11D3FBFBA2F86
:10043000A92F982F8827820F911DA11DB11DBC01E6
:10044000CD0142E0660F771F881F991F4A95D1F7AB
:1004500008956115710579F0FB0101900020E9F71D
:100460003197AF01461B570BDC01ED91FC910280E7
:10047000F381E02D099480E090E008954F925F921F
:100480006F927F928F929F92AF92BF92CF92DF92A4
:10049000EF92FF920F931F93CF93DF93CDB7DEB709
:1004A000E0970FB6F894DEBF0FBECDBF69E471E0F0
:1004B000CE014F960E94E20D66E271E0CE014996B0
:1004C0000E94E20D66E271E0CE0143960E94E20DC9
:1004D00066E271E0CE010D960E94E20D66E271E0E7
:1004E000CE0107960E94E20D66E271E0CE01019610
:1004F0000E94E20D69E471E0CE0185960E94E20D52
:100500000E94BD0B97FD1FC08E369105E1F08BA7B1
:100510001CA689A49AA42FEF821A920AB401CE01D4
:1005200085960E948B0D882359F32DA13EA189A5A4
:100530009AA5BE01655D7F4F820F931F0E942D1407
:100540009AA689A6DDCFBE016B5D7F4FCE014F9687
:100550000E94520DCE0185960E94DD0D8BA19CA1BB
:100560000C9708F4E6C0812C912C8BA19CA18816D5
:100570009906D0F5B401CE014F960E94400DFC01C2
:100580008081843731F1B401CE014F960E94400D35
:10059000FC0180818037F9F0B401CE014F960E94B2
:1005A000400DFC0180818936C1F0B401CE014F9627
:1005B0000E94400DFC018081843689F0B401CE0197
:1005C0004F960E94400DFC018081823749F48401DE
:1005D00007C0340105C0540103C0640101C07401A7
:1005E000FFEF8F1A9F0AC1CFA3014F5F5F4F9501A5
:1005F000BE01615E7F4FCE0185960E94F70DBE0160
:100600006B5D7F4FCE0149960E94520DCE018596BB
:100610000E94DD0DA5014F5F5F4F9601BE01615E37
:100620007F4FCE0185960E94F70DBE016B5D7F4F17
:10063000CE010D960E94520DCE0185960E94DD0DD1
:10064000A6014F5F5F4F9701BE01615E7F4FCE01F4
:1006500085960E94F70DBE016B5D7F4FCE014396DC
:100660000E94520DCE0185960E94DD0DA7014F5FBD
:100670005F4F9801BE01615E7F4FCE0185960E945B
:10068000F70DBE016B5D7F4FCE0107960E94520DA4
:10069000CE0185960E94DD0D2BA13CA12150310990
:1006A000A8014F5F5F4FBE01615E7F4FCE0185960F
:1006B0000E94F70DBE016B5D7F4FCE0101960E9437
:1006C000520DCE0185960E94DD0DCE0149960E9405
:1006D000350D6DA77EA78FA798ABCE010D960E9412
:1006E000350D2B013C01CE0143960E94350D4B0187
:1006F0005C01CE0107960E94350D6B017C01CE0195
:1007000001960E94350D2DA53EA530930101209341
:1007100000015092030140920201909205018092E3
:100720000401D0920701C092060170937701609393
:100730007601CE0101960E94DD0DCE0107960E9442
:10074000DD0DCE010D960E94DD0DCE0143960E9477
:10075000DD0DCE0149960E94DD0DCE014F960E941F
:10076000DD0DE0960FB6F894DEBF0FBECDBFDF9172
:10077000CF911F910F91FF90EF90DF90CF90BF909E
:10078000AF909F908F907F906F905F904F90089563
:100790004F925F926F927F92EF92FF920F931F930F
:1007A000CF93DF93CDB7DEB7A1970FB6F894DEBF36
:1007B0000FBECDBF7C01FA01CB0119A2223008F493
:1007C0002AE08E010F5D1F4F422E512C612C712C9F
:1007D000BF01A30192010E94E110F901CA01015079
:1007E00011096A3014F4605D01C0695CD8016C9332
:1007F000232B242B252B61F7B801C7010E94290266
:10080000A1960FB6F894DEBF0FBECDBFDF91CF919A
:100810001F910F91FF90EF907F906F905F904F909E
:1008200008954F925F926F927F928F929F92AF92B4
:10083000BF92CF92DF92EF92FF92CF93DF93EC01C2
:100840006A017B01B22E9A01AB01C701B6010E9479
:100850002312882319F068E271E027C026013701CE
:10086000E89477F82FEF3FEF4FE75FE7C301B2015E
:100870000E94231281110DC02FEF3FEF4FE75FE77A
:10088000C301B2010E94701418161CF46CE271E0EE
:100890000CC02FEF3FEF4FE75FE4C701B6010E94A6
:1008A0001E1218169CF460E371E0CE01DF91CF9127
:1008B000FF90EF90DF90CF90BF90AF909F908F9080
:1008C0007F906F905F904F900C9429022FEF3FEF35
:1008D0004FE75FECC701B6010E94701487FDE3CFBC
:1008E00020E030E0A901C701B6010E94701487FF23
:1008F0000EC0E881F9810190F081E02D6DE2CE011A
:1009000009954C01F7FAF094F7F8F09402C0812CA5
:10091000912CA12C60E070E080E09FE3AB1441F0EB
:1009200020E030E040E251E40E947611A394F6CF3B
:100930009B01AC01C701B6010E940A112B013C01C9
:100940000E94EF116B017C010E9475149B01AC01A8
:10095000C301B2010E9409112B013C012AE0B70139
:10096000A601CE010E94C8037C01E80CF91CBB2043
:1009700039F064E371E0CE010E942902E80EF91E0D
:10098000DB2CDD2029F120E030E040E251E4C3011E
:10099000B2010E94D6142B013C010E94EF114B01C1
:1009A000A12CB12C2AE0B501A401CE010E94C803FC
:1009B000E80EF91EC501B4010E9475149B01AC013B
:1009C000C301B2010E9409112B013C01DA94D9CF75
:1009D000C701DF91CF91FF90EF90DF90CF90BF9054
:1009E000AF909F908F907F906F905F904F90089501
:1009F0000C9429028F929F92AF92BF92CF92DF9276
:100A0000EF92FF920F931F93CF93DF93CDB7DEB793
:100A100065970FB6F894DEBF0FBECDBF809143023D
:100A2000811161C00E94FE0C811109C01092410227
:100A30001092430210924202E1E4F2E06AC060E0E8
:100A400080EF0E949D0CFF24F394E12CD12C11E047
:100A50000E94460C8D8B0E94460C9D89913019F4A2
:100A60008130C1F436C02E2D30E098131DC0809126
:100A70004102181738F4F901EA5CFD4F83818F2198
:100A800049F402C0181731F090E0193060F4109367
:100A9000420209C0EE2DF0E0EA5CFD4F83818F2910
:100AA000838391E009C0D12EF901EA5CFD4F2381D7
:100AB0008F2D809582238383892F0E946B0C1F5F6B
:100AC000FF0C19F4E394FF24F39427E02E1508F0AB
:100AD000BFCF113440F0D0924102D11067C181E004
:100AE0008093430263C1109241021092430210921C
:100AF000420280E0A9E3B2E0FE013D969E012B5E3A
:100B00003F4F9D919193E217F307D9F781112CC0C4
:100B10008DCF129282E0E933F807D9F70E940402E0
:100B20004B015C014AEFC42ED12CE12CF12C0E9428
:100B30000402DC01CB0188199909AA09BB09883E86
:100B40009340A105B10558F091E0C91AD108E10818
:100B5000F108E8EE8E0EE3E09E1EA11CB11CC1144C
:100B6000D104E104F10419F77E012DE0E20EF11C3D
:100B7000D701E0E087E08E0D8A1739F09D91E927D3
:100B8000F0E0E859FF4FE491F7CF8D85823231F0E4
:100B9000883221F0803119F401E001C000E00E94A8
:100BA000FE0CC7010E94D80C61E084E40E949D0CF9
:100BB0000E94FE0CC7010E94D80C60E08EEB0E94E0
:100BC0009D0CCE0101967C0139E0A32EA80E28E0F1
:100BD000C22ED12CBB24B39410E00E94460C81118C
:100BE0001B29BB0C91E0C91AD108B9F7F701119381
:100BF0007F01AE12ECCF6A8170E0762F6627898183
:100C0000682B002389F083E0660F771F8A95E1F750
:100C100088858031A9F42F818CE090E0821B9109B6
:100C2000607F680F791F0CC08D81807611F4687F1A
:100C300007C0803211F46C7F03C0803409F46E7FEA
:100C4000072E000C880B990B0E94771420E030E0EF
:100C500040E85DE30E94D6146093720170937301C3
:100C6000809374019093750166E371E081E891E0EF
:100C70000E94F804409172015091730160917401D7
:100C80007091750122E081E891E00E94110468E30F
:100C900071E081E891E00E94F80480910001909158
:100CA00001010E940C0C6AE371E081E891E00E946E
:100CB000F80480917001909171010E940C0C6CE31A
:100CC00071E081E891E00E94F80480910201909126
:100CD00003010E940C0C6EE371E081E891E00E9438
:100CE000F80480910401909105010E940C0C60E4CD
:100CF00071E081E891E00E94F804809106019091F2
:100D000007010E940C0C62E471E081E891E00E940E
:100D1000F80480917601909177010E940C0C64E4B4
:100D200071E081E891E00E94290267E471E081E8C6
:100D300091E00E942902C0907201D0907301E0906E
:100D40007401F0907501009100011091010160E0C3
:100D500089E00E94F70B22E0B701A6018EE192E044
:100D60000E94110461E089E00E94F70BB801110FA5
:100D7000880B990B0E947714AB01BC0122E08EE135
:100D800092E00E94110465960FB6F894DEBF0FBE84
:100D9000CDBFDF91CF911F910F91FF90EF90DF902A
:100DA000CF90BF90AF909F908F900895809139021F
:100DB000882309F498CE81E09DCE1F920F920FB642
:100DC0000F9211242F933F934F935F936F937F93D1
:100DD0008F939F93AF93BF93EF93FF9381E891E03D
:100DE0000E947001FF91EF91BF91AF919F918F9100
:100DF0007F916F915F914F913F912F910F900FBE17
:100E00000F901F9018951F920F920FB60F921124FA
:100E10002F938F939F93EF93FF93E0919101F09124
:100E200092018081E0919701F091980182FD12C0BA
:100E3000908180919A018F5F8F7320919B0182171F
:100E400051F0E0919A01F0E0EF57FE4F958F8093BB
:100E50009A0101C08081FF91EF919F918F912F9115
:100E60000F900FBE0F901F90189590E0FC01E45872
:100E7000FE4F3491FC01E255FE4F2491FC01E656F1
:100E8000FE4FE491EE2309F43BC0332339F13330B4
:100E900091F038F43130A9F0323001F584B58F7D0E
:100EA00012C0373091F03830A1F03430B9F480916D
:100EB00080008F7D03C0809180008F7780938000B9
:100EC0000DC084B58F7784BD09C08091B0008F7745
:100ED00003C08091B0008F7D8093B000F0E0EE0FF2
:100EE000FF1FEE58FE4FA591B4918FB7F894EC9187
:100EF000611103C020952E2301C02E2B2C938FBF90
:100F00000895CF93DF93EC0160E08E810E94350756
:100F100061E08E810E94350760E08E810E94350776
:100F20008BE891E00197F1F7DF91CF910895CF938E
:100F3000DF9390E0FC01E255FE4F2491FC01E65660
:100F4000FE4F8491882361F190E0880F991FFC0186
:100F5000E859FE4FC591D491FC01EE58FE4FA59182
:100F6000B491611109C09FB7F894888120958223BC
:100F70008883EC912E230BC0623061F49FB7F89404
:100F80003881822F809583238883EC912E2B2C939C
:100F90009FBF06C08FB7F894E8812E2B28838FBFA0
:100FA000DF91CF9108951F93CF93DF93182FEB011B
:100FB00061E00E949707209711F460E004C0CF3FE2
:100FC000D10539F461E0812FDF91CF911F910C940D
:100FD0003507E12FF0E0E458FE4FE491E330F9F0FB
:100FE00048F4E130B9F0E230A1F584B5806284BD07
:100FF000C8BD34C0E730E9F0E83019F1E43049F514
:1010000080918000806280938000D0938B00C09399
:101010008A0024C084B5806884BDC7BD1FC080918C
:101020008000806880938000D0938900C0938800FE
:1010300015C08091B00080688093B000C093B30069
:101040000DC08091B00080628093B000C093B40066
:1010500005C0C038D1050CF0B5CFAFCFDF91CF912F
:101060001F9108952FB7F8946091790170917A01DA
:1010700080917B0190917C012FBF08952F923F9228
:101080004F925F926F927F928F929F92AF92BF9298
:10109000CF92DF92EF92FF920F931F93CF93DF9344
:1010A00000D000D000D0CDB7DEB78091760190910E
:1010B0007701892B09F003C12090060130900701C8
:1010C000009104011091050120910201309103016A
:1010D0003E832D830E9432080E94751469837A83AF
:1010E0008B839C836091000170910101072E000C9D
:1010F000880B990B0E947714209172013091730133
:1011000040917401509175010E9409116B017C019D
:1011100020916C0130916D0140916E0150916F01F1
:1011200069817A818B819C810E94091120E030E8DD
:101130004BEB55E40E9476112B013C019B01AC0165
:10114000C701B6010E94D61420916801309169014F
:1011500040916A0150916B010E940A114B015C01A0
:1011600020E030E040EF51E40E941E1218162CF4EB
:1011700080E090E0A0E7B2E417C020E030E040EF6C
:1011800051ECC501B4010E94701487FD09C0809222
:10119000680190926901A0926A01B0926B010CC043
:1011A00080E090E0A0E7B2EC809368019093690141
:1011B000A0936A01B0936B012091640130916501A5
:1011C0004091660150916701C701B6010E94091163
:1011D000A30192010E9476114B015C01C09264014F
:1011E000D0926501E0926601F092670189819A814F
:1011F000AB81BC8180936C0190936D01A0936E01D3
:10120000B0936F01AD81BE81BD01BB0F880B990BFF
:101210000E947714A70196010E94D6146B017C01ED
:10122000B801110F880B990B0E9477142091680167
:101230003091690140916A0150916B010E94D6146E
:101240009B01AC01C701B6010E940A116B017C0130
:10125000B101330C880B990B0E947714A5019401FE
:101260000E94D6149B01AC01C701B6010E940A116D
:101270000E94E8118B01072E000C880B990B0E942D
:1012800077146B017C0120E030E04FE753E40E94CB
:101290001E1287FF0DC020E030E04FE753ECC7017E
:1012A000B6010E94701418162CF001E01FEF02C066
:1012B0000FEF10E0109371010093700134C0609142
:1012C000000170910101072E000C880B990B0E9400
:1012D0007714209172013091730140917401509103
:1012E00075010E9409116B017C0120E030E040E8AB
:1012F0005EE30E941E1218166CF020E030E040E819
:101300005EEBC701B6010E94701487FD06C080E045
:1013100090E005C08FEF90E002C08BEF9FEF9093BD
:10132000710180937001009170011091710110168C
:10133000110654F460E08CE00E94350761E08DE016
:101340000E943507B8010FC00115110539F161E0A0
:101350008CE00E94350760E08DE00E94350766272B
:101360007727601B710B8BE026960FB6F894DEBFD3
:101370000FBECDBFDF91CF911F910F91FF90EF90E6
:10138000DF90CF90BF90AF909F908F907F906F90A5
:101390005F904F903F902F900C94D30760E08DE0CA
:1013A0000E94350760E08CE026960FB6F894DEBF09
:1013B0000FBECDBFDF91CF911F910F91FF90EF90A6
:1013C000DF90CF90BF90AF909F908F907F906F9065
:1013D0005F904F903F902F900C9435071F920F9283
:1013E0000FB60F9211242F933F938F939F93AF9338
:1013F000BF938091790190917A01A0917B01B09186
:101400007C013091780123E0230F2D3720F40196E1
:10141000A11DB11D05C026E8230F0296A11DB11D17
:10142000209378018093790190937A01A0937B01B6
:10143000B0937C0180917D0190917E01A0917F010C
:10144000B09180010196A11DB11D80937D01909303
:101450007E01A0937F01B0938001BF91AF919F91D6
:101460008F913F912F910F900FBE0F901F90189565
:10147000CF92DF92EF92FF920F931F93CF93DF9360
:101480007C016C0187E0C80ED11CC0E0D0E0062FC3
:1014900010E0B8010C2E02C0759567950A94E2F72A
:1014A0006170F60181916F010E9435072196C43069
:1014B000D10579F7C701DF91CF911F910F91FF906F
:1014C000EF90DF90CF900C948107CF92DF92EF9254
:1014D000FF920F931F93CF93DF93EC01F62E642FAF
:1014E0008C810E9435078D818F3F19F060E00E944A
:1014F00035078F850F2D10E084FF25C06E0187E032
:10150000C80ED11CE12CF12CB8010E2C02C075952F
:1015100067950A94E2F76170F60181916F010E946C
:101520003507FFEFEF1AFF0A88E0E816F10461F7CC
:10153000CE01DF91CF911F910F91FF90EF90DF903F
:10154000CF900C948107B80184E0759567958A95D2
:10155000E1F7CE010E94380A6F2DCE01DF91CF91C5
:101560001F910F91FF90EF90DF90CF900C94380A6D
:1015700041E00E94650A81E090E0089540E00C940B
:10158000650ACF93DF932091EF023091F0022A3069
:1015900031050CF048C0EDE6F2E0C0E0D0E021916A
:1015A0003191232BD9F541155105E9F1DC01CB012E
:1015B000FE01EE0FFF1FEE0FFF1FEF57FD4F808361
:1015C0009183A283B383FE01EE0FFF1FE359FD4F0A
:1015D00051834083FE01EE0FFF1FE755FD4F11823F
:1015E0001082FE01EF52FD4F81E080830E9432089D
:1015F000FE01EE0FFF1FEE0FFF1FEB5BFD4F608341
:101600007183828393838091EF029091F00201961F
:101610009093F0028093EF02CE0107C02196CA306A
:10162000D10509F0BCCF8FEF9FEFDF91CF910895E7
:10163000EF92FF920F931F93CF93DF93EC016230F1
:1016400018F08F8588608F876B8B1C8A80E48D8B68
:1016500080E18E8B80E58F8B61E08C810E94970703
:101660008D818F3F19F061E00E94970761E08E81C4
:101670000E9497077E0187E0E80EF11C00E010E071
:101680008F8584FD03C084E090E002C088E090E094
:10169000081719074CF461E0F70181917F010E945E
:1016A00097070F5F1F4FECCF8BE39DE00197F1F79A
:1016B00060E08C810E94350760E08E810E943507D2
:1016C0008D818F3F19F060E00E9435076F8564FDC2
:1016D0001DC063E0CE010E94380A0BE416E4C80185
:1016E0000197F1F763E0CE010E94380AC801019723
:1016F000F1F763E0CE010E94380A83E592E001979A
:10170000F1F762E0CE010E94380A16C06062CE0195
:101710000E94BE0A8BE496E40197F1F76F85606240
:10172000CE010E94BE0A83E592E00197F1F76F8532
:101730006062CE010E94BE0A6F856062CE010E9487
:10174000BE0A84E0888B6CE0CE010E94BE0A61E094
:10175000CE010E94BE0A8BE39FE10197F1F782E080
:10176000898B66E0CE01DF91CF911F910F91FF90A1
:10177000EF900C94BE0A0E941F140F931F930E94B7
:1017800032086093890170938A0180938B01909352
:101790008C01E0918101F09182010680F781E02DBA
:1017A00081E891E0099597FF1FC00E9432080091DF
:1017B000890110918A0120918B0130918C01DC010B
:1017C000CB01801B910BA20BB30B009185011091F3
:1017D0008601209187013091880180179107A20727
:1017E000B307B8F28FEF9FEF1F910F910895643008
:1017F00008F063E090913102691710F06FEF690F04
:10180000E62FF0E0E25EFD4F9489682F690F606873
:101810008EE192E00C94BE0ACF92DF92EF92FF929B
:10182000CF93DF936C01990FEE08FF08F7FE21C0FC
:10183000E0918101F09182010190F081E02D6DE253
:1018400081E891E00995EC0144275527BA014C192C
:101850005D096E097F092AE081E891E00E94C803D2
:101860008C0F9D1FDF91CF91FF90EF90DF90CF9075
:1018700008952AE0B701A60181E891E0DF91CF91B8
:10188000FF90EF90DF90CF900C94C80380913602C8
:10189000E0913702F0913802F8949181982B91836E
:1018A0002281982F909529232283A7E0B0E01197F9
:1018B000F1F7218192239183A3E2B0E01197F1F730
:1018C00090817894EFECF0E03197F1F7982381E084
:1018D00009F480E0089590913602E0913702F0918A
:1018E0003802392F309580FF13C0F8942281832F5E
:1018F000822382838181892B8183A3E2B0E01197C7
:10190000F1F78281982B9283789487ED90E012C052
:10191000F8942281832F822382838181892B818382
:10192000AFEFB0E01197F1F78281982B9283789412
:101930008FE090E00197F1F70895EF92FF920F93F7
:101940001F93CF93DF931F92CDB7DEB7082F88E0A8
:10195000E82EF12C11E081E0912F902309F480E032
:1019600069830E946B0C110F81E0E81AF10869810C
:10197000E114F10481F7611113C0F894E09137028A
:10198000F09138029181809136028095982391835D
:10199000E0913702F0913802928189238283789412
:1019A0000F90DF91CF911F910F91FF90EF900895CD
:1019B000EF92FF920F931F93CF93DF931F92CDB7B8
:1019C000DEB7182F60E085E599830E949D0CE12E1B
:1019D0009981F92E8701085F1F4F60E0F70181911F
:1019E0007F010E949D0CE016F106B9F70F90DF9180
:1019F000CF911F910F91FF90EF9008959091360233
:101A0000E0913702F0913802F8948181292F2095D6
:101A10008223818378948DE743E050E0815021F167
:101A2000DA011197F1F730813923C1F3F8948281FB
:101A3000822382838181892B81837894ABE7B7E00D
:101A40001197F1F7F894818128232183A3E1B1E074
:101A50001197F1F78081982381E009F080E0789474
:101A6000E3E6F6E03197F1F70895FC01808191817A
:101A7000009711F00C94341460E070E0CB010895ED
:101A8000FC01248135816217730720F480819181E4
:101A9000009729F41092440284E492E00895860F9E
:101AA000971F08950F931F93CF93DF938C01EB0142
:101AB000FC01808191810097B1F068817981611585
:101AC000710579F0428153812C813D814217530782
:101AD00040F00E942D148C819D81F80195838483B0
:101AE00013C00E94BD1288819981F801918380837F
:101AF0008A819B81938382838C819D81958384835A
:101B0000198218821B821A821D821C82DF91CF915A
:101B10001F910F9108950F931F93CF93DF93EC01C3
:101B200088819981009729F02A813B812617370700
:101B300088F48B016F5F7F4F0E945513009761F00F
:101B4000998388831B830A832C813D81232B11F485
:101B5000FC01108281E001C080E0DF91CF911F91F4
:101B60000F910895EF92FF920F931F93CF93DF93FE
:101B7000EC017B018A01BA010E948B0D2881398119
:101B800081110DC02115310519F0C9010E94BD1246
:101B9000198218821D821C821B821A8206C01D8334
:101BA0000C83B701C9010E942D14CE01DF91CF91A2
:101BB0001F910F91FF90EF900895FC01808191811A
:101BC0000C94BD12FC0111821082138212821582C4
:101BD00014826115710551F0FB0101900020E9F7B5
:101BE0003197AF01461B570B0C94B20D0895BF926D
:101BF000CF92DF92EF92FF920F931F93CF93DF93D9
:101C00007C016B01EA0189012417350720F48D2F2F
:101C1000E901042F182F69E471E0C7010E94E20D69
:101C2000D60114968D919C911597C817D907C8F5C0
:101C30008017910708F48C01D601ED91FC91119762
:101C4000E00FF11FB08010824D915C91BA016C0FD2
:101C50007D1F6115710561F0FB0101900020E9F71E
:101C60003197AF01461B570BC7010E94B20D13C03D
:101C7000F70180819181009711F00E94BD12D70178
:101C800011961C921E9215961C921E9214971396F2
:101C90001C921E921297D601ED91FC91E00FF11F5C
:101CA000B082C701DF91CF911F910F91FF90EF900C
:101CB000DF90CF90BF900895CF93DF93109284016F
:101CC0001092830188EE93E0A0E0B0E0809385015C
:101CD00090938601A0938701B093880182E191E0FF
:101CE000909382018093810185EC90E090938E0126
:101CF00080938D0184EC90E09093900180938F010C
:101D000080EC90E0909392018093910181EC90E0BF
:101D1000909394018093930182EC90E090939601CC
:101D20008093950186EC90E09093980180939701C1
:101D300010929A0110929B0110929C0110929D01A9
:101D400060E088E00E949707E6EBF1E0E491E09321
:101D50003602E2EAF1E0E491F0E0EE0FFF1FE05717
:101D6000FE4F8591949190933802809337021092A0
:101D700041021092430210924202E1E4F2E0129218
:101D800022E0E933F207D9F71092210210922002E3
:101D900082E291E090931F0280931E0287E080937D
:101DA00022028FEF8093230286E08093240285E055
:101DB0008093250284E08093260283E080932702AB
:101DC00082E0809328021092290210922A02109237
:101DD0002B0210922C0210922D0261E08EE192E013
:101DE0000E94180B0E943208C1EDD2E0EDE6F2E04D
:101DF00045E452E0199211921192DA016D937D93AC
:101E00008D939D93AD019F01225B3F4FD9011D92A0
:101E10001C92B2E0E138FB0769F71092F0021092D1
:101E2000EF02DF91CF910895CF93DF9300D000D0E0
:101E300000D0CDB7DEB7789484B5826084BD84B518
:101E4000816084BD85B5826085BD85B5816085BDB5
:101E500080916E00816080936E001092810080916D
:101E600081008260809381008091810081608093F5
:101E70008100809180008160809380008091B1001A
:101E800084608093B1008091B00081608093B00045
:101E900080917A00846080937A0080917A008260D9
:101EA00080937A0080917A00816080937A0080919B
:101EB0007A00806880937A001092C10062E08EE11F
:101EC00092E00E94180B60E080E00E94F70B6AE449
:101ED00071E08EE192E00E94F80460E08FE00E94E1
:101EE000F70B63E571E08EE192E00E94F80461E097
:101EF00080E00E94F70B65E571E08EE192E00E94C0
:101F0000F80461E08FE00E94F70B60E671E08EE17B
:101F100092E00E94F804E0919101F091920182E038
:101F20008083E0918D01F0918E011082E0918F010C
:101F3000F09190018FEC808310929901E0919501CE
:101F4000F091960186E08083E0919301F0919401F5
:101F5000808180618083E0919301F0919401808180
:101F600088608083E0919301F09194018081806882
:101F70008083E0919301F091940180818F7D808333
:101F800061E082E00E94970761E083E00E9497078A
:101F900061E084E00E94970761E085E00E94970776
:101FA00061E086E00E94970761E087E00E94970762
:101FB00061E089E00E94970761E08AE00E9497074C
:101FC00061E08BE00E94970761E08CE00E94970738
:101FD00061E08DE00E9497074EE358E064EF71E006
:101FE00080E090E00E94C10A4AEF54E068EE73E09E
:101FF00080E090E00E94C10A4EE352E060ED77E09D
:1020000080E090E00E94C10A01E010E022E0222E70
:10201000312C0E9432086B017C0185E492E09A83A6
:1020200089838DEB92E09C838B839E838D8320E05C
:1020300030E0ED81FE81178E168ECF01805591091B
:10204000DC018D919C91892B09F449C0E981FA81C9
:10205000408151816281738184AC95ACA6ACB7ACF0
:1020600026013701441A550A660A770A48145904AA
:102070006A047B04A0F1480D591D6A1D7B1D408335
:10208000518362837383C9018F529D4FFC0180810C
:10209000882329F18D819E814497DC014D915C91CB
:1020A0004115510529F4ED81FE81178F068F17C068
:1020B000AD81BE818D919C911197841795077CF419
:1020C0005F961C930E935E97019611969C938E9348
:1020D0008417950724F05F963C922E925E972F5FAF
:1020E0003F4FE981FA813496FA83E9838D819E819D
:1020F00002969E838D832A30310509F09ACF8DE6B2
:10210000E82E82E0F82E91E8A92E92E0B92EC12C9B
:10211000D12CAB81BC815E968D919C915F97813073
:10212000910519F0029731F02CC0D701ED91FC9187
:10213000099527C0D701ED91FC9109958091EF0297
:102140009091F0020097E9F0F70120813181232B73
:10215000C1F011821082F601EF52FD4F1082AB8167
:10216000BC815F961C921E925E97F50110821182CF
:10217000128213821D921C9201979093F002809319
:10218000EF02FFEFCF1ADF0A82E0E80EF11C94E0C5
:10219000A90EB11C8B819C8102969C838B839AE053
:1021A000C916D10409F0B5CF6FEF70E089E00E9445
:1021B000D3076FEF70E08AE00E94D3070E94FA0114
:1021C00028CFA1E21A2EAA1BBB1BFD010DC0AA1F1E
:1021D000BB1FEE1FFF1FA217B307E407F50720F090
:1021E000A21BB30BE40BF50B661F771F881F991F0B
:1021F0001A9469F760957095809590959B01AC0154
:10220000BD01CF010895EE0FFF1F0590F491E02D61
:1022100009945058BB27AA270E9421110C945A15E3
:102220000E944C1538F00E94531520F039F49F3F5E
:1022300019F426F40C9449150EF4E095E7FB0C9480
:102240004315E92F0E946B1558F3BA1762077307FD
:102250008407950720F079F4A6F50C948D150EF4FB
:10226000E0950B2EBA2FA02D0B01B90190010C01A6
:10227000CA01A0011124FF27591B99F0593F50F4BE
:10228000503E68F11A16F040A22F232F342F442716
:10229000585FF3CF469537952795A795F04053950E
:1022A000C9F77EF41F16BA0B620B730B840BBAF0DE
:1022B0009150A1F0FF0FBB1F661F771F881FC2F749
:1022C0000EC0BA0F621F731F841F48F4879577955D
:1022D0006795B795F7959E3F08F0B0CF9395880F17
:1022E00008F09927EE0F9795879508950E948A1117
:1022F0000C945A150E94531558F00E944C1540F04A
:1023000029F45F3F29F00C94431551110C948E155C
:102310000C9449150E946B1568F39923B1F355236A
:1023200091F3951B550BBB27AA27621773078407E8
:1023300038F09F5F5F4F220F331F441FAA1FA9F37E
:1023400035D00E2E3AF0E0E832D091505040E6956C
:10235000001CCAF72BD0FE2F29D0660F771F881FCD
:10236000BB1F261737074807AB07B0E809F0BB0BC0
:10237000802DBF01FF2793585F4F3AF09E3F5105D4
:1023800078F00C9443150C948E155F3FE4F3983E5F
:10239000D4F3869577956795B795F7959F5FC9F7BD
:1023A000880F911D9695879597F90895E1E0660F3E
:1023B000771F881FBB1F621773078407BA0720F0B7
:1023C000621B730B840BBA0BEE1F88F7E095089520
:1023D0000E94EF116894B1110C948E1508950E941B
:1023E000731588F09F5798F0B92F9927B751B0F01F
:1023F000E1F0660F771F881F991F1AF0BA95C9F789
:1024000014C0B13091F00E948D15B1E008950C9484
:102410008D15672F782F8827B85F39F0B93FCCF337
:10242000869577956795B395D9F73EF49095809505
:10243000709561957F4F8F4F9F4F08950E94B21402
:1024400008F48FEF08950E94B214880B990B089539
:10245000CF93DF938230910510F482E090E0E09119
:10246000F302F091F40220E030E0C0E0D0E03097D9
:1024700011F14081518148175907C0F04817590799
:1024800061F482819381209719F09B838A832BC00A
:102490009093F4028093F30226C02115310519F0C0
:1024A0004217530718F49A01BE01DF01EF010280C1
:1024B000F381E02DDCCF2115310509F1281B390B03
:1024C0002430310590F412968D919C9113976115EB
:1024D000710521F0FB019383828304C09093F40281
:1024E0008093F302FD01329644C0FD01E20FF31F19
:1024F00081939193225031092D933C933AC02091BE
:10250000F1023091F202232B41F420910A01309123
:102510000B013093F2022093F102209108013091D7
:1025200009012115310541F42DB73EB740910C0149
:1025300050910D01241B350BE091F102F091F20254
:10254000E217F307A0F42E1B3F0B2817390778F08A
:10255000AC014E5F5F4F2417350748F04E0F5F1FE9
:102560005093F2024093F1028193919302C0E0E014
:10257000F0E0CF01DF91CF9108950F931F93CF9398
:10258000DF93009709F48CC0FC013297138212820A
:102590000091F3021091F4020115110581F42081DC
:1025A0003181820F931F2091F1023091F20228179E
:1025B000390779F5F093F202E093F10271C0D80186
:1025C00040E050E0AE17BF0750F412962D913C91B9
:1025D0001397AD012115310509F1D901F3CF9D0103
:1025E000DA013383228360817181860F971F8217FE
:1025F000930769F4EC0128813981260F371F2E5F7C
:102600003F4F318320838A819B8193838283452B33
:1026100029F4F093F402E093F30242C01396FC9382
:10262000EE931297ED01499159919E01240F351FA8
:10263000E217F30771F480819181840F951F029650
:1026400011969C938E938281938113969C938E9383
:102650001297E0E0F0E0D80112968D919C911397CB
:10266000009719F0F8018C01F6CF8D919C9198019B
:102670002E5F3F4F820F931F2091F1023091F202A3
:102680002817390769F4309729F41092F402109250
:10269000F30202C0138212821093F2020093F1023D
:1026A000DF91CF911F910F910895A0E0B0E0EBE58D
:1026B000F3E10C949815EC01009721F4CB010E94F2
:1026C0002812B8C0FC01E60FF71F9C012250310907
:1026D000E217F30708F4ACC0D9010D911C911197D2
:1026E00006171707B0F00530110508F49FC0C801A0
:1026F00004978617970708F499C002501109061B22
:10270000170B019311936D937C93CF010E94BD121F
:102710008DC05B01A01AB10A4C01800E911EA091E0
:10272000F302B091F40240E050E0E12CF12C10975C
:1027300009F44AC0A815B905D1F56D907C901197A0
:10274000630182E0C80ED11CCA14DB0480F1A3012E
:102750004A195B096A0182E0C80ED11C1296BC902E
:1027600012971396AC91B5E0CB16D10440F0B2822B
:10277000A38351834083D9016D937C930AC00E5F7C
:102780001F4FC301800F911FF90191838083EB2DAF
:10279000FA2FE114F10431F0D7011396FC93EE9374
:1027A000129744C0F093F402E093F3023FC08D917E
:1027B0009C9111974817590708F4AC017D011296B6
:1027C0000D90BC91A02DB3CF8091F1029091F202B7
:1027D00088159905E1F446175707C8F48091080158
:1027E00090910901009741F48DB79EB740910C017B
:1027F00050910D01841B950BE817F907C8F4F0936D
:10280000F202E093F102F901718360830FC0CB0102
:102810000E9428127C01009759F0A801BE010E9475
:102820002414CE010E94BD12C70104C0CE0102C013
:1028300080E090E0CDB7DEB7EEE00C94B41581E017
:1028400090E0F8940C94CB15FB01DC0102C00190E0
:102850000D9241505040D8F70895FB01DC010190E2
:102860000D920020E1F708951F93FC019927882716
:10287000BC01E89411911032E9F3193010F01E30C8
:10288000C8F31B3251F01D3249F4689406C00E940F
:102890005B14610F711D811D911D119110531A3030
:1028A000B0F33EF490958095709561957F4F8F4F72
:1028B0009F4F1F910895592F482F372F262F660FAE
:1028C000771F881F991F660F771F881F991F620F38
:1028D000731F841F951F660F771F881F991F089508
:1028E0000E94B21408F481E00895E89409C097FBAF
:1028F0003EF490958095709561957F4F8F4F9F4FD7
:102900009923A9F0F92F96E9BB279395F69587951A
:1029100077956795B795F111F8CFFAF4BB0F11F4DD
:1029200060FF1BC06F5F7F4F8F4F9F4F16C0882384
:1029300011F096E911C0772321F09EE8872F762FBA
:1029400005C0662371F096E8862F70E060E02AF0FB
:102950009A95660F771F881FDAF7880F96958795E7
:1029600097F90895990F0008550FAA0BE0E8FEEFBC
:1029700016161706E807F907C0F012161306E40743
:10298000F50798F0621B730B840B950B39F40A263C
:1029900061F0232B242B252B21F408950A2609F41A
:1029A000A140A6958FEF811D811D08950E94E91415
:1029B0000C945A150E944C1538F00E94531520F0C3
:1029C000952311F00C9443150C94491511240C9483
:1029D0008E150E946B1570F3959FC1F3950F50E013
:1029E000551F629FF001729FBB27F00DB11D639FC1
:1029F000AA27F00DB11DAA1F649F6627B00DA11D67
:102A0000661F829F2227B00DA11D621F739FB00D0C
:102A1000A11D621F839FA00D611D221F749F33277C
:102A2000A00D611D231F849F600D211D822F762F15
:102A30006A2F11249F5750409AF0F1F088234AF0F2
:102A4000EE0FFF1FBB1F661F771F881F915050405E
:102A5000A9F79E3F510580F00C9443150C948E15F8
:102A60005F3FE4F3983ED4F3869577956795B795E5
:102A7000F795E7959F5FC1F7FE2B880F911D9695FF
:102A8000879597F9089597F99F6780E870E060E06F
:102A900008959FEF80EC089500240A9416161706F7
:102AA00018060906089500240A941216130614063F
:102AB00005060895092E0394000C11F4882352F0A2
:102AC000BB0F40F4BF2B11F460FF04C06F5F7F4F5A
:102AD0008F4F9F4F089557FD9058440F551F59F041
:102AE0005F3F71F04795880F97FB991F61F09F3FFB
:102AF00079F087950895121613061406551FF2CF24
:102B00004695F1DF08C0161617061806991FF1CF73
:102B100086957105610508940895E894BB2766279A
:102B20007727CB0197F908952F923F924F925F92AA
:102B30006F927F928F929F92AF92BF92CF92DF92CD
:102B4000EF92FF920F931F93CF93DF93CDB7DEB732
:102B5000CA1BDB0B0FB6F894DEBF0FBECDBF0994C6
:102B60002A88398848885F846E847D848C849B841D
:102B7000AA84B984C884DF80EE80FD800C811B812B
:102B8000AA81B981CE0FD11D0FB6F894DEBF0FBE5A
:0A2B9000CDBFED010895F894FFCFCA
:102B9A0016000F00050002000000F5028000000088
:102BAA00000091010D015A0138014C01D8010000C1
:102BBA000000B80A0D0130006E616E00696E660091
:102BCA006F7666002E007400730070006B00690057
:102BDA00640072002F6E000D0A0052656164696E0E
:102BEA006720004300536574706F696E742020007B
:042BFA004320000074
:107E0000112484B714BE81FFF0D085E080938100F7
:107E100082E08093C00088E18093C10086E0809377
:107E2000C20080E18093C4008EE0C9D0259A86E02C
:107E300020E33CEF91E0309385002093840096BBD3
:107E4000B09BFECF1D9AA8958150A9F7CC24DD24C4
:107E500088248394B5E0AB2EA1E19A2EF3E0BF2EE7
:107E6000A2D0813461F49FD0082FAFD0023811F036
:107E7000013811F484E001C083E08DD089C08234E0
:107E800011F484E103C0853419F485E0A6D080C0E4
:107E9000853579F488D0E82EFF2485D0082F10E0AE
:107EA000102F00270E291F29000F111F8ED06801E7
:107EB0006FC0863521F484E090D080E0DECF843638
:107EC00009F040C070D06FD0082F6DD080E0C81688
:107ED00080E7D80618F4F601B7BEE895C0E0D1E017
:107EE00062D089930C17E1F7F0E0CF16F0E7DF06D8
:107EF00018F0F601B7BEE89568D007B600FCFDCFD4
:107F0000A601A0E0B1E02C9130E011968C91119780
:107F100090E0982F8827822B932B1296FA010C0160
:107F200087BEE89511244E5F5F4FF1E0A038BF0790
:107F300051F7F601A7BEE89507B600FCFDCF97BE46
:107F4000E89526C08437B1F42ED02DD0F82E2BD052
:107F50003CD0F601EF2C8F010F5F1F4F84911BD097
:107F6000EA94F801C1F70894C11CD11CFA94CF0C13
:107F7000D11C0EC0853739F428D08EE10CD085E9AC
:107F80000AD08FE07ACF813511F488E018D01DD067
:107F900080E101D065CF982F8091C00085FFFCCF94
:107FA0009093C60008958091C00087FFFCCF809118
:107FB000C00084FD01C0A8958091C6000895E0E648
:107FC000F0E098E1908380830895EDDF803219F02E
:107FD00088E0F5DFFFCF84E1DECF1F93182FE3DFCA
:107FE0001150E9F7F2DF1F91089580E0E8DFEE27F6
:047FF000FF270994CA
:027FFE00040479
:0400000300007E007B
:00000001FF
